{
  "contractName": "Marketplace",
  "abi": [
    {
      "constant": true,
      "inputs": [],
      "name": "staking",
      "outputs": [
        {
          "name": "",
          "type": "address"
        }
      ],
      "payable": false,
      "stateMutability": "view",
      "type": "function",
      "signature": "0x4cf088d9"
    },
    {
      "constant": false,
      "inputs": [],
      "name": "renounceOwnership",
      "outputs": [],
      "payable": false,
      "stateMutability": "nonpayable",
      "type": "function",
      "signature": "0x715018a6"
    },
    {
      "constant": true,
      "inputs": [],
      "name": "sellerStake",
      "outputs": [
        {
          "name": "",
          "type": "uint256"
        }
      ],
      "payable": false,
      "stateMutability": "view",
      "type": "function",
      "signature": "0x8bd7c1f8"
    },
    {
      "constant": true,
      "inputs": [],
      "name": "owner",
      "outputs": [
        {
          "name": "",
          "type": "address"
        }
      ],
      "payable": false,
      "stateMutability": "view",
      "type": "function",
      "signature": "0x8da5cb5b"
    },
    {
      "constant": true,
      "inputs": [],
      "name": "isOwner",
      "outputs": [
        {
          "name": "",
          "type": "bool"
        }
      ],
      "payable": false,
      "stateMutability": "view",
      "type": "function",
      "signature": "0x8f32d59b"
    },
    {
      "constant": false,
      "inputs": [
        {
          "name": "newOwner",
          "type": "address"
        }
      ],
      "name": "transferOwnership",
      "outputs": [],
      "payable": false,
      "stateMutability": "nonpayable",
      "type": "function",
      "signature": "0xf2fde38b"
    },
    {
      "inputs": [
        {
          "name": "_staking",
          "type": "address"
        },
        {
          "name": "_sellerStake",
          "type": "uint256"
        }
      ],
      "payable": false,
      "stateMutability": "nonpayable",
      "type": "constructor",
      "signature": "constructor"
    },
    {
      "anonymous": false,
      "inputs": [
        {
          "indexed": true,
          "name": "listing",
          "type": "bytes32"
        },
        {
          "indexed": true,
          "name": "seller",
          "type": "address"
        },
        {
          "indexed": false,
          "name": "token",
          "type": "address"
        },
        {
          "indexed": false,
          "name": "price",
          "type": "uint256"
        },
        {
          "indexed": false,
          "name": "active",
          "type": "bool"
        }
      ],
      "name": "LogCreateListing",
      "type": "event",
      "signature": "0x6345ca6a29914fddfd3f659ee0f63bb1c1fde0b7cf2603fa765ec80c98720ba6"
    },
    {
      "anonymous": false,
      "inputs": [
        {
          "indexed": true,
          "name": "listing",
          "type": "bytes32"
        },
        {
          "indexed": false,
          "name": "reason",
          "type": "bytes32"
        }
      ],
      "name": "LogRemoveListing",
      "type": "event",
      "signature": "0x953c36b0278dcfc82478e71616d481a6624e64ed154a8f0cd28ff3240c1b83ac"
    },
    {
      "anonymous": false,
      "inputs": [
        {
          "indexed": true,
          "name": "listing",
          "type": "bytes32"
        },
        {
          "indexed": true,
          "name": "buyer",
          "type": "address"
        },
        {
          "indexed": false,
          "name": "price",
          "type": "uint256"
        },
        {
          "indexed": false,
          "name": "token",
          "type": "address"
        },
        {
          "indexed": false,
          "name": "timestamp",
          "type": "uint256"
        }
      ],
      "name": "LogBuy",
      "type": "event",
      "signature": "0x6059a76e06574a99ea367f63047bdd0d874e0137a47bcdb594a8d20bbe9dc13a"
    },
    {
      "anonymous": false,
      "inputs": [
        {
          "indexed": false,
          "name": "sellerStake",
          "type": "uint256"
        }
      ],
      "name": "LogChangeSellerStake",
      "type": "event",
      "signature": "0x672124e24edef14e1c77b1eb19b4d66fea050f7c1161751481ab052327a6ccac"
    },
    {
      "anonymous": false,
      "inputs": [
        {
          "indexed": true,
          "name": "listing",
          "type": "bytes32"
        },
        {
          "indexed": false,
          "name": "newPrice",
          "type": "uint256"
        },
        {
          "indexed": false,
          "name": "newToken",
          "type": "address"
        }
      ],
      "name": "LogChangePrice",
      "type": "event",
      "signature": "0x20b588ecad6e161981290336649cf02bef2cb5a52b02d84f7c2d8907a133d3d5"
    },
    {
      "anonymous": false,
      "inputs": [
        {
          "indexed": true,
          "name": "previousOwner",
          "type": "address"
        },
        {
          "indexed": true,
          "name": "newOwner",
          "type": "address"
        }
      ],
      "name": "OwnershipTransferred",
      "type": "event",
      "signature": "0x8be0079c531659141344cd1fd0a4f28419497f9722a3daafe3b4186f6b6457e0"
    },
    {
      "constant": false,
      "inputs": [
        {
          "name": "_sellerStake",
          "type": "uint256"
        }
      ],
      "name": "changeSellerStake",
      "outputs": [],
      "payable": false,
      "stateMutability": "nonpayable",
      "type": "function",
      "signature": "0x72cbf682"
    },
    {
      "constant": true,
      "inputs": [
        {
          "name": "_user",
          "type": "address"
        }
      ],
      "name": "isStakedSeller",
      "outputs": [
        {
          "name": "authorizedSeller",
          "type": "bool"
        }
      ],
      "payable": false,
      "stateMutability": "view",
      "type": "function",
      "signature": "0x8087861f"
    },
    {
      "constant": false,
      "inputs": [
        {
          "name": "_id",
          "type": "bytes32"
        },
        {
          "name": "_token",
          "type": "address"
        },
        {
          "name": "_price",
          "type": "uint256"
        },
        {
          "name": "_activate",
          "type": "bool"
        }
      ],
      "name": "createListing",
      "outputs": [],
      "payable": false,
      "stateMutability": "nonpayable",
      "type": "function",
      "signature": "0x077f734d"
    },
    {
      "constant": false,
      "inputs": [
        {
          "name": "_id",
          "type": "bytes32"
        }
      ],
      "name": "changeListingStatus",
      "outputs": [],
      "payable": false,
      "stateMutability": "nonpayable",
      "type": "function",
      "signature": "0xef960041"
    },
    {
      "constant": false,
      "inputs": [
        {
          "name": "_id",
          "type": "bytes32"
        },
        {
          "name": "_price",
          "type": "uint256"
        },
        {
          "name": "_token",
          "type": "address"
        }
      ],
      "name": "changeListingPrice",
      "outputs": [],
      "payable": false,
      "stateMutability": "nonpayable",
      "type": "function",
      "signature": "0x2b46d68e"
    },
    {
      "constant": true,
      "inputs": [
        {
          "name": "_id",
          "type": "bytes32"
        }
      ],
      "name": "getListing",
      "outputs": [
        {
          "name": "id",
          "type": "bytes32"
        },
        {
          "name": "token",
          "type": "address"
        },
        {
          "name": "price",
          "type": "uint256"
        },
        {
          "name": "seller",
          "type": "address"
        },
        {
          "name": "active",
          "type": "bool"
        }
      ],
      "payable": false,
      "stateMutability": "view",
      "type": "function",
      "signature": "0x175c0d16"
    },
    {
      "constant": false,
      "inputs": [
        {
          "name": "_id",
          "type": "bytes32"
        },
        {
          "name": "_reason",
          "type": "bytes32"
        }
      ],
      "name": "removeListing",
      "outputs": [],
      "payable": false,
      "stateMutability": "nonpayable",
      "type": "function",
      "signature": "0x9250b084"
    },
    {
      "constant": false,
      "inputs": [
        {
          "name": "_id",
          "type": "bytes32"
        }
      ],
      "name": "buyListing",
      "outputs": [],
      "payable": false,
      "stateMutability": "nonpayable",
      "type": "function",
      "signature": "0x1f8839d8"
    }
  ],
  "bytecode": "0x608060405234801561001057600080fd5b506040516040806118eb8339810180604052604081101561003057600080fd5b810190808051906020019092919080519060200190929190505050336000806101000a81548173ffffffffffffffffffffffffffffffffffffffff021916908373ffffffffffffffffffffffffffffffffffffffff1602179055506000809054906101000a900473ffffffffffffffffffffffffffffffffffffffff1673ffffffffffffffffffffffffffffffffffffffff16600073ffffffffffffffffffffffffffffffffffffffff167f8be0079c531659141344cd1fd0a4f28419497f9722a3daafe3b4186f6b6457e060405160405180910390a36000823b90506000811115156101ab576040517f08c379a00000000000000000000000000000000000000000000000000000000081526004018080602001828103825260358152602001807f4572726f723a205374616b696e6720636f6e7472616374206e6f74206465706c81526020017f6f79656420617420676976656e2061646472657373000000000000000000000081525060400191505060405180910390fd5b82600160006101000a81548173ffffffffffffffffffffffffffffffffffffffff021916908373ffffffffffffffffffffffffffffffffffffffff160217905550816002819055505050506116e6806102056000396000f3fe6080604052600436106100ca576000357c010000000000000000000000000000000000000000000000000000000090048063077f734d146100cf578063175c0d16146101405780631f8839d8146102075780632b46d68e146102425780634cf088d9146102a7578063715018a6146102fe57806372cbf682146103155780638087861f146103505780638bd7c1f8146103b95780638da5cb5b146103e45780638f32d59b1461043b5780639250b0841461046a578063ef960041146104af578063f2fde38b146104ea575b600080fd5b3480156100db57600080fd5b5061013e600480360360808110156100f257600080fd5b8101908080359060200190929190803573ffffffffffffffffffffffffffffffffffffffff1690602001909291908035906020019092919080351515906020019092919050505061053b565b005b34801561014c57600080fd5b506101796004803603602081101561016357600080fd5b810190808035906020019092919050505061080c565b604051808681526020018573ffffffffffffffffffffffffffffffffffffffff1673ffffffffffffffffffffffffffffffffffffffff1681526020018481526020018373ffffffffffffffffffffffffffffffffffffffff1673ffffffffffffffffffffffffffffffffffffffff168152602001821515151581526020019550505050505060405180910390f35b34801561021357600080fd5b506102406004803603602081101561022a57600080fd5b81019080803590602001909291905050506108d1565b005b34801561024e57600080fd5b506102a56004803603606081101561026557600080fd5b810190808035906020019092919080359060200190929190803573ffffffffffffffffffffffffffffffffffffffff169060200190929190505050610d24565b005b3480156102b357600080fd5b506102bc610ffc565b604051808273ffffffffffffffffffffffffffffffffffffffff1673ffffffffffffffffffffffffffffffffffffffff16815260200191505060405180910390f35b34801561030a57600080fd5b50610313611022565b005b34801561032157600080fd5b5061034e6004803603602081101561033857600080fd5b81019080803590602001909291905050506110f4565b005b34801561035c57600080fd5b5061039f6004803603602081101561037357600080fd5b81019080803573ffffffffffffffffffffffffffffffffffffffff169060200190929190505050611148565b604051808215151515815260200191505060405180910390f35b3480156103c557600080fd5b506103ce61124c565b6040518082815260200191505060405180910390f35b3480156103f057600080fd5b506103f9611252565b604051808273ffffffffffffffffffffffffffffffffffffffff1673ffffffffffffffffffffffffffffffffffffffff16815260200191505060405180910390f35b34801561044757600080fd5b5061045061127b565b604051808215151515815260200191505060405180910390f35b34801561047657600080fd5b506104ad6004803603604081101561048d57600080fd5b8101908080359060200190929190803590602001909291905050506112d2565b005b3480156104bb57600080fd5b506104e8600480360360208110156104d257600080fd5b8101908080359060200190929190505050611471565b005b3480156104f657600080fd5b506105396004803603602081101561050d57600080fd5b81019080803573ffffffffffffffffffffffffffffffffffffffff1690602001909291905050506115a1565b005b61054433611148565b15156105b8576040517f08c379a00000000000000000000000000000000000000000000000000000000081526004018080602001828103825260178152602001807f4572726f723a204e6f7420656e6f756768207374616b6500000000000000000081525060200191505060405180910390fd5b60006001026003600086815260200190815260200160002060000154141515610649576040517f08c379a000000000000000000000000000000000000000000000000000000000815260040180806020018281038252601d8152602001807f4572726f723a204c697374696e6720616c72656164792065786973747300000081525060200191505060405180910390fd5b60a0604051908101604052808581526020018473ffffffffffffffffffffffffffffffffffffffff1681526020018381526020013373ffffffffffffffffffffffffffffffffffffffff168152602001821515815250600360008681526020019081526020016000206000820151816000015560208201518160010160006101000a81548173ffffffffffffffffffffffffffffffffffffffff021916908373ffffffffffffffffffffffffffffffffffffffff1602179055506040820151816002015560608201518160030160006101000a81548173ffffffffffffffffffffffffffffffffffffffff021916908373ffffffffffffffffffffffffffffffffffffffff16021790555060808201518160030160146101000a81548160ff0219169083151502179055509050503373ffffffffffffffffffffffffffffffffffffffff16847f6345ca6a29914fddfd3f659ee0f63bb1c1fde0b7cf2603fa765ec80c98720ba6858585604051808473ffffffffffffffffffffffffffffffffffffffff1673ffffffffffffffffffffffffffffffffffffffff16815260200183815260200182151515158152602001935050505060405180910390a350505050565b6000806000806000856003600088815260200190815260200160002060010160009054906101000a900473ffffffffffffffffffffffffffffffffffffffff166003600089815260200190815260200160002060020154600360008a815260200190815260200160002060030160009054906101000a900473ffffffffffffffffffffffffffffffffffffffff16600360008b815260200190815260200160002060030160149054906101000a900460ff169450945094509450945091939590929450565b6003600082815260200190815260200160002060030160149054906101000a900460ff161515610969576040517f08c379a00000000000000000000000000000000000000000000000000000000081526004018080602001828103825260198152602001807f4572726f723a204c697374696e67206e6f74206163746976650000000000000081525060200191505060405180910390fd5b6109a86003600083815260200190815260200160002060030160009054906101000a900473ffffffffffffffffffffffffffffffffffffffff16611148565b1515610a1c576040517f08c379a000000000000000000000000000000000000000000000000000000000815260040180806020018281038252601a8152602001807f4572726f723a2053656c6c657220686173206e6f207374616b6500000000000081525060200191505060405180910390fd5b6003600082815260200190815260200160002060010160009054906101000a900473ffffffffffffffffffffffffffffffffffffffff1673ffffffffffffffffffffffffffffffffffffffff166323b872dd336003600085815260200190815260200160002060030160009054906101000a900473ffffffffffffffffffffffffffffffffffffffff1660036000868152602001908152602001600020600201546040518463ffffffff167c0100000000000000000000000000000000000000000000000000000000028152600401808473ffffffffffffffffffffffffffffffffffffffff1673ffffffffffffffffffffffffffffffffffffffff1681526020018373ffffffffffffffffffffffffffffffffffffffff1673ffffffffffffffffffffffffffffffffffffffff1681526020018281526020019350505050602060405180830381600087803b158015610b7557600080fd5b505af1158015610b89573d6000803e3d6000fd5b505050506040513d6020811015610b9f57600080fd5b81019080805190602001909291905050501515610c4a576040517f08c379a00000000000000000000000000000000000000000000000000000000081526004018080602001828103825260218152602001807f4572726f723a206e6f7420656e6f75676820746f6b656e7320617070726f766581526020017f640000000000000000000000000000000000000000000000000000000000000081525060400191505060405180910390fd5b3373ffffffffffffffffffffffffffffffffffffffff16817f6059a76e06574a99ea367f63047bdd0d874e0137a47bcdb594a8d20bbe9dc13a60036000858152602001908152602001600020600201546003600086815260200190815260200160002060010160009054906101000a900473ffffffffffffffffffffffffffffffffffffffff1642604051808481526020018373ffffffffffffffffffffffffffffffffffffffff1673ffffffffffffffffffffffffffffffffffffffff168152602001828152602001935050505060405180910390a350565b826003600082815260200190815260200160002060030160009054906101000a900473ffffffffffffffffffffffffffffffffffffffff1673ffffffffffffffffffffffffffffffffffffffff163373ffffffffffffffffffffffffffffffffffffffff16141515610dfe576040517f08c379a00000000000000000000000000000000000000000000000000000000081526004018080602001828103825260138152602001807f4572726f723a20556e617574686f72697a65640000000000000000000000000081525060200191505060405180910390fd5b6003600085815260200190815260200160002060010160009054906101000a900473ffffffffffffffffffffffffffffffffffffffff1673ffffffffffffffffffffffffffffffffffffffff168273ffffffffffffffffffffffffffffffffffffffff16141580610e9c5750600073ffffffffffffffffffffffffffffffffffffffff168273ffffffffffffffffffffffffffffffffffffffff1614155b15610ef757816003600086815260200190815260200160002060010160006101000a81548173ffffffffffffffffffffffffffffffffffffffff021916908373ffffffffffffffffffffffffffffffffffffffff1602179055505b60036000858152602001908152602001600020600201548314158015610f1d5750600083115b15610f3e578260036000868152602001908152602001600020600201819055505b837f20b588ecad6e161981290336649cf02bef2cb5a52b02d84f7c2d8907a133d3d560036000878152602001908152602001600020600201546003600088815260200190815260200160002060010160009054906101000a900473ffffffffffffffffffffffffffffffffffffffff16604051808381526020018273ffffffffffffffffffffffffffffffffffffffff1673ffffffffffffffffffffffffffffffffffffffff1681526020019250505060405180910390a250505050565b600160009054906101000a900473ffffffffffffffffffffffffffffffffffffffff1681565b61102a61127b565b151561103557600080fd5b600073ffffffffffffffffffffffffffffffffffffffff166000809054906101000a900473ffffffffffffffffffffffffffffffffffffffff1673ffffffffffffffffffffffffffffffffffffffff167f8be0079c531659141344cd1fd0a4f28419497f9722a3daafe3b4186f6b6457e060405160405180910390a360008060006101000a81548173ffffffffffffffffffffffffffffffffffffffff021916908373ffffffffffffffffffffffffffffffffffffffff160217905550565b6110fc61127b565b151561110757600080fd5b806002819055507f672124e24edef14e1c77b1eb19b4d66fea050f7c1161751481ab052327a6ccac816040518082815260200191505060405180910390a150565b6000600254600160009054906101000a900473ffffffffffffffffffffffffffffffffffffffff1673ffffffffffffffffffffffffffffffffffffffff166316934fc4846040518263ffffffff167c0100000000000000000000000000000000000000000000000000000000028152600401808273ffffffffffffffffffffffffffffffffffffffff1673ffffffffffffffffffffffffffffffffffffffff16815260200191505060206040518083038186803b15801561120857600080fd5b505afa15801561121c573d6000803e3d6000fd5b505050506040513d602081101561123257600080fd5b810190808051906020019092919050505010159050919050565b60025481565b60008060009054906101000a900473ffffffffffffffffffffffffffffffffffffffff16905090565b60008060009054906101000a900473ffffffffffffffffffffffffffffffffffffffff1673ffffffffffffffffffffffffffffffffffffffff163373ffffffffffffffffffffffffffffffffffffffff1614905090565b816003600082815260200190815260200160002060030160009054906101000a900473ffffffffffffffffffffffffffffffffffffffff1673ffffffffffffffffffffffffffffffffffffffff163373ffffffffffffffffffffffffffffffffffffffff161415156113ac576040517f08c379a00000000000000000000000000000000000000000000000000000000081526004018080602001828103825260138152602001807f4572726f723a20556e617574686f72697a65640000000000000000000000000081525060200191505060405180910390fd5b600360008481526020019081526020016000206000808201600090556001820160006101000a81549073ffffffffffffffffffffffffffffffffffffffff021916905560028201600090556003820160006101000a81549073ffffffffffffffffffffffffffffffffffffffff02191690556003820160146101000a81549060ff02191690555050827f953c36b0278dcfc82478e71616d481a6624e64ed154a8f0cd28ff3240c1b83ac836040518082815260200191505060405180910390a2505050565b806003600082815260200190815260200160002060030160009054906101000a900473ffffffffffffffffffffffffffffffffffffffff1673ffffffffffffffffffffffffffffffffffffffff163373ffffffffffffffffffffffffffffffffffffffff1614151561154b576040517f08c379a00000000000000000000000000000000000000000000000000000000081526004018080602001828103825260138152602001807f4572726f723a20556e617574686f72697a65640000000000000000000000000081525060200191505060405180910390fd5b6003600083815260200190815260200160002060030160149054906101000a900460ff16156003600084815260200190815260200160002060030160146101000a81548160ff0219169083151502179055505050565b6115a961127b565b15156115b457600080fd5b6115bd816115c0565b50565b600073ffffffffffffffffffffffffffffffffffffffff168173ffffffffffffffffffffffffffffffffffffffff16141515156115fc57600080fd5b8073ffffffffffffffffffffffffffffffffffffffff166000809054906101000a900473ffffffffffffffffffffffffffffffffffffffff1673ffffffffffffffffffffffffffffffffffffffff167f8be0079c531659141344cd1fd0a4f28419497f9722a3daafe3b4186f6b6457e060405160405180910390a3806000806101000a81548173ffffffffffffffffffffffffffffffffffffffff021916908373ffffffffffffffffffffffffffffffffffffffff1602179055505056fea165627a7a72305820c38100393a3282ce2bf70eb6970861ecc15ca77a466d5078b877795a3893dbf90029",
  "source": "pragma solidity ^0.5.1;\r\n\r\nimport {Staking} from './Staking.sol';\r\nimport './util/IERC20.sol';\r\nimport './util/Ownable.sol';\r\n\r\ncontract Marketplace is Ownable {\r\n\r\n    /// EVENTS \r\n    event LogCreateListing(bytes32 indexed listing, address indexed seller, address token, uint256 price, bool active);\r\n    event LogRemoveListing(bytes32 indexed listing, bytes32 reason);\r\n    event LogBuy(bytes32 indexed listing, address indexed buyer, uint price, address token,  uint timestamp);\r\n    event LogChangeSellerStake(uint256 sellerStake);\r\n    event LogChangePrice(bytes32 indexed listing, uint256 newPrice, address newToken);\r\n    \r\n    /// MODIFIERS \r\n    modifier isSeller(bytes32 _listing) {\r\n        require(msg.sender == listings[_listing].seller, \"Error: Unauthorized\");\r\n        _;\r\n    }\r\n    \r\n    /// STRUCT DEFINITIONS \r\n    struct Listing {\r\n         bytes32 id;        // Swarm hash\r\n         IERC20 token;      // Token to accept\r\n         uint256 price;     // Price in wei format \r\n         address seller;    // Seller \r\n         bool active;       // Active or Inactive \r\n    }\r\n    \r\n    /// CONTRACT STATE \r\n    Staking public staking;                          // The implemented staking contract \r\n    uint256 public sellerStake;                      // The staking treshold to be a seller \r\n    mapping(bytes32 => Listing) private listings;    // Mapping containing all listings (id => Listing)\r\n    \r\n    /// @notice constructor is called upon creation of contract \r\n    /// @param _staking address of the associated staking contract \r\n    /// @param _sellerStake Stake required to be a seller \r\n    constructor(address _staking, uint256 _sellerStake) public {\r\n       uint codeLength;\r\n        assembly {\r\n            // Retrieve the size of the code on target address \r\n            codeLength := extcodesize(_staking)\r\n        }\r\n        // Check if code exists at target address\r\n        require(codeLength > 0, \"Error: Staking contract not deployed at given address\");\r\n        staking = Staking(_staking);\r\n        sellerStake = _sellerStake;\r\n    }\r\n    \r\n    /// @notice Change the stake treshold required to be a seller \r\n    /// @param _sellerStake the new stake treshold in wei format \r\n    /// @dev can only be called by contract owner \r\n    function changeSellerStake(uint256 _sellerStake) public onlyOwner {\r\n        sellerStake = _sellerStake;\r\n        emit LogChangeSellerStake(_sellerStake);\r\n    }\r\n\r\n    /// @notice Check whether someone has enough tokens staked to be considered a seller \r\n    /// @param _user Ethereum address of the user \r\n    /// @return authorizedSeller true or false \r\n    function isStakedSeller(address _user) public view returns (bool authorizedSeller) {\r\n        return staking.stakes(_user) >= sellerStake;\r\n    }\r\n    \r\n    /// @notice Create a new listing \r\n    /// @param _id the listing id (swarm hash) \r\n    /// @param _token the address of the token the listing is priced in\r\n    /// @param _price the price of the listing \r\n    /// @param _activate activate the listing upon creation true/false \r\n    function createListing(bytes32 _id, address _token, uint256 _price, bool _activate) public {\r\n        // Require that seller has staked enough tokens \r\n        require(isStakedSeller(msg.sender), \"Error: Not enough stake\");\r\n        // Require that listing doesn't already exist \r\n        require(listings[_id].id == bytes32(0x0), \"Error: Listing already exists\");\r\n        // Create new listing\r\n        listings [_id ]= Listing(_id, IERC20(_token), _price, msg.sender, _activate);\r\n        // Emit event to compile list of all listings on the client side\r\n        emit LogCreateListing(_id, msg.sender, _token, _price, _activate);\r\n    }\r\n    \r\n    /// @notice Change a listing's active status\r\n    /// @param _id the listing id (swarm hash)\r\n    function changeListingStatus(bytes32 _id) public isSeller(_id) {\r\n        listings[_id].active = !listings[_id].active;\r\n    }\r\n\r\n    /// @notice Change a listing's price and/or token \r\n    /// @param _Id the listing id (swarm hash) \r\n    /// @param _price the new price (leave blank or the same number to only update token)\r\n    /// @param _token the new token (leave blank or the same address to only update price)\r\n    function changeListingPrice(bytes32 _id, uint256 _price, address _token) public isSeller(_id) {\r\n        if (_token != address( listings[_id].token) || _token != address(0)) listings[_id].token = IERC20(_token); \r\n        if ( _price != listings[_id].price && _price > 0 ) listings[_id].price = _price;\r\n        emit LogChangePrice(_id, listings[_id].price, address(listings[_id].token));\r\n    }\r\n\r\n    /// @notice Get a listing's metadata by its id \r\n    /// @param _id the swarm hash of the listing \r\n    /// @return Listing struct as a tuple \r\n    function getListing(bytes32 _id) \r\n        public\r\n        view \r\n        returns (\r\n            bytes32 id,\r\n            address token,\r\n            uint256 price,\r\n            address seller,\r\n            bool active\r\n            ) {\r\n        return (\r\n            _id,\r\n            address(listings[_id].token),\r\n            listings[_id].price,\r\n            listings[_id].seller,\r\n            listings[_id].active\r\n        );\r\n    }\r\n    \r\n    /// @notice Remove a listing \r\n    /// @param _id the listing id (swarm hash)\r\n    /// @param _reason swarm hash with a string containing the reason for removal (optional)\r\n    function removeListing(bytes32 _id, bytes32 _reason) public isSeller(_id) {\r\n        delete listings[_id];\r\n        emit LogRemoveListing(_id, _reason);\r\n    }\r\n\r\n    /// @notice Buy a listing \r\n    /// @param _id the listing id (swarm hash) \r\n    /// @dev requires ERC20.approve() by buyer first \r\n    function buyListing(bytes32 _id) public {\r\n        // Listing must be active \r\n        require(listings[_id].active, \"Error: Listing not active\");\r\n        // Can not buy from an unstaked seller \r\n        require(isStakedSeller(listings[_id].seller),  \"Error: Seller has no stake\");\r\n        // Buyer must have approved enough tokens \r\n        require(IERC20(listings[_id].token).transferFrom(msg.sender, listings[_id].seller, listings[_id].price), \"Error: not enough tokens approved\");\r\n        // Emit buy event \r\n        emit LogBuy(_id, msg.sender, listings[_id].price, address(listings[_id].token), now);\r\n    }\r\n    \r\n}",
  "sourcePath": "C:/Users/Nico/Desktop/consensys-academy/contracts/Marketplace.sol",
  "compiler": {
    "name": "solc",
    "version": "0.5.1+commit.c8a2cb62.Emscripten.clang"
  },
  "schemaVersion": "3.0.2",
  "updatedAt": "2019-03-04T18:04:33.432Z",
  "devdoc": {
    "methods": {
      "buyListing(bytes32)": {
        "details": "requires ERC20.approve() by buyer first "
      },
      "changeListingPrice(bytes32,uint256,address)": {
        "params": {
          "_token": "the new token (leave blank or the same address to only update price)"
        }
      },
      "changeListingStatus(bytes32)": {
        "params": {
          "_id": "the listing id (swarm hash)"
        }
      },
      "changeSellerStake(uint256)": {
        "details": "can only be called by contract owner "
      },
      "constructor": {
        "params": {
          "_sellerStake": "Stake required to be a seller "
        }
      },
      "createListing(bytes32,address,uint256,bool)": {
        "params": {
          "_activate": "activate the listing upon creation true/false "
        }
      },
      "getListing(bytes32)": {
        "return": "Listing struct as a tuple "
      },
      "isOwner()": {
        "return": "true if `msg.sender` is the owner of the contract.\r"
      },
      "isStakedSeller(address)": {
        "return": "authorizedSeller true or false "
      },
      "owner()": {
        "return": "the address of the owner.\r"
      },
      "removeListing(bytes32,bytes32)": {
        "params": {
          "_reason": "swarm hash with a string containing the reason for removal (optional)"
        }
      },
      "renounceOwnership()": {
        "details": "Allows the current owner to relinquish control of the contract.\r"
      },
      "transferOwnership(address)": {
        "details": "Allows the current owner to transfer control of the contract to a newOwner.\r",
        "params": {
          "newOwner": "The address to transfer ownership to.\r"
        }
      }
    }
  },
  "userdoc": {
    "methods": {
      "renounceOwnership()": {
        "notice": "Renouncing to ownership will leave the contract without an owner.\r It will not be possible to call the functions with the `onlyOwner`\r modifier anymore.\r"
      }
    }
  }
}