{
  "contractName": "Proxy",
  "abi": [
    {
      "constant": true,
      "inputs": [],
      "name": "impl",
      "outputs": [
        {
          "name": "",
          "type": "address"
        }
      ],
      "payable": false,
      "stateMutability": "view",
      "type": "function"
    },
    {
      "constant": true,
      "inputs": [],
      "name": "owner",
      "outputs": [
        {
          "name": "",
          "type": "address"
        }
      ],
      "payable": false,
      "stateMutability": "view",
      "type": "function"
    },
    {
      "inputs": [
        {
          "name": "_impl",
          "type": "address"
        }
      ],
      "payable": false,
      "stateMutability": "nonpayable",
      "type": "constructor"
    },
    {
      "payable": false,
      "stateMutability": "nonpayable",
      "type": "fallback"
    },
    {
      "constant": false,
      "inputs": [
        {
          "name": "_impl",
          "type": "address"
        }
      ],
      "name": "upgrade",
      "outputs": [],
      "payable": false,
      "stateMutability": "nonpayable",
      "type": "function"
    }
  ],
  "bytecode": "0x608060405234801561001057600080fd5b506040516020806103ea8339810180604052602081101561003057600080fd5b810190808051906020019092919050505080600160006101000a81548173ffffffffffffffffffffffffffffffffffffffff021916908373ffffffffffffffffffffffffffffffffffffffff1602179055503373ffffffffffffffffffffffffffffffffffffffff166000809054906101000a9050505050610333806100b76000396000f3fe608060405260043610610051576000357c0100000000000000000000000000000000000000000000000000000000900480630900f0101461011e5780638abf60771461016f5780638da5cb5b146101c6575b34801561005d57600080fd5b5060007c0100000000000000000000000000000000000000000000000000000000026000357fffffffff00000000000000000000000000000000000000000000000000000000167bffffffffffffffffffffffffffffffffffffffffffffffffffffffff1916141515156100d057600080fd5b6000600160009054906101000a900473ffffffffffffffffffffffffffffffffffffffff16905060405136600082376000813683855af43d806000843e816000811461011a578184f35b8184fd5b34801561012a57600080fd5b5061016d6004803603602081101561014157600080fd5b81019080803573ffffffffffffffffffffffffffffffffffffffff16906020019092919050505061021d565b005b34801561017b57600080fd5b506101846102bc565b604051808273ffffffffffffffffffffffffffffffffffffffff1673ffffffffffffffffffffffffffffffffffffffff16815260200191505060405180910390f35b3480156101d257600080fd5b506101db6102e2565b604051808273ffffffffffffffffffffffffffffffffffffffff1673ffffffffffffffffffffffffffffffffffffffff16815260200191505060405180910390f35b6000809054906101000a900473ffffffffffffffffffffffffffffffffffffffff1673ffffffffffffffffffffffffffffffffffffffff163373ffffffffffffffffffffffffffffffffffffffff1614151561027857600080fd5b80600160006101000a81548173ffffffffffffffffffffffffffffffffffffffff021916908373ffffffffffffffffffffffffffffffffffffffff16021790555050565b600160009054906101000a900473ffffffffffffffffffffffffffffffffffffffff1681565b6000809054906101000a900473ffffffffffffffffffffffffffffffffffffffff168156fea165627a7a72305820728db47fe99d6b6d9e406cfb52d80254f98da61c35a74f33a87b6ba1d5b36a560029",
  "source": "pragma solidity ^0.5.1;\r\n\r\ncontract Proxy {\r\n  address public owner;\r\n  address public impl;\r\n  constructor (address _impl) public {\r\n      impl = _impl;\r\n      owner == msg.sender;\r\n  }\r\n  /**\r\n  * @notice Fallback function allowing to perform a delegatecall to the given implementation.\r\n  * This function will return whatever the implementation call returns\r\n  */\r\n  function () external {\r\n    require(msg.sig != 0x0);\r\n    address _impl = impl;\r\n    assembly {\r\n      let ptr := mload(0x40)\r\n      calldatacopy(ptr, 0, calldatasize)\r\n      let result := delegatecall(gas, _impl, ptr, calldatasize, ptr, 0)\r\n      let size := returndatasize\r\n      returndatacopy(ptr, 0, size)\r\n\r\n      switch result\r\n      case 0 { revert(ptr, size) }\r\n      default { return(ptr, size) }\r\n    }\r\n  }\r\n\r\n  function upgrade(address _impl) external {\r\n    require(msg.sender == owner);\r\n    impl = _impl;\r\n  }\r\n\r\n}",
  "sourcePath": "C:/Users/Nico/Desktop/consensys-academy/contracts/Proxy.sol",
  "compiler": {
    "name": "solc",
    "version": "0.5.1+commit.c8a2cb62.Emscripten.clang"
  },
  "schemaVersion": "3.0.2",
  "updatedAt": "2019-03-04T17:48:57.025Z",
  "devdoc": {
    "methods": {}
  },
  "userdoc": {
    "methods": {}
  }
}