{
  "contractName": "Staking",
  "abi": [
    {
      "constant": true,
      "inputs": [
        {
          "name": "",
          "type": "address"
        }
      ],
      "name": "stakes",
      "outputs": [
        {
          "name": "",
          "type": "uint256"
        }
      ],
      "payable": false,
      "stateMutability": "view",
      "type": "function",
      "signature": "0x16934fc4"
    },
    {
      "constant": false,
      "inputs": [],
      "name": "unpause",
      "outputs": [],
      "payable": false,
      "stateMutability": "nonpayable",
      "type": "function",
      "signature": "0x3f4ba83a"
    },
    {
      "constant": true,
      "inputs": [],
      "name": "paused",
      "outputs": [
        {
          "name": "",
          "type": "bool"
        }
      ],
      "payable": false,
      "stateMutability": "view",
      "type": "function",
      "signature": "0x5c975abb"
    },
    {
      "constant": false,
      "inputs": [],
      "name": "renounceOwnership",
      "outputs": [],
      "payable": false,
      "stateMutability": "nonpayable",
      "type": "function",
      "signature": "0x715018a6"
    },
    {
      "constant": false,
      "inputs": [],
      "name": "pause",
      "outputs": [],
      "payable": false,
      "stateMutability": "nonpayable",
      "type": "function",
      "signature": "0x8456cb59"
    },
    {
      "constant": true,
      "inputs": [],
      "name": "owner",
      "outputs": [
        {
          "name": "",
          "type": "address"
        }
      ],
      "payable": false,
      "stateMutability": "view",
      "type": "function",
      "signature": "0x8da5cb5b"
    },
    {
      "constant": true,
      "inputs": [],
      "name": "isOwner",
      "outputs": [
        {
          "name": "",
          "type": "bool"
        }
      ],
      "payable": false,
      "stateMutability": "view",
      "type": "function",
      "signature": "0x8f32d59b"
    },
    {
      "constant": false,
      "inputs": [
        {
          "name": "newOwner",
          "type": "address"
        }
      ],
      "name": "transferOwnership",
      "outputs": [],
      "payable": false,
      "stateMutability": "nonpayable",
      "type": "function",
      "signature": "0xf2fde38b"
    },
    {
      "constant": true,
      "inputs": [],
      "name": "token",
      "outputs": [
        {
          "name": "",
          "type": "address"
        }
      ],
      "payable": false,
      "stateMutability": "view",
      "type": "function",
      "signature": "0xfc0c546a"
    },
    {
      "inputs": [
        {
          "name": "_token",
          "type": "address"
        }
      ],
      "payable": false,
      "stateMutability": "nonpayable",
      "type": "constructor",
      "signature": "constructor"
    },
    {
      "payable": false,
      "stateMutability": "nonpayable",
      "type": "fallback"
    },
    {
      "anonymous": false,
      "inputs": [
        {
          "indexed": true,
          "name": "user",
          "type": "address"
        },
        {
          "indexed": false,
          "name": "amount",
          "type": "uint256"
        },
        {
          "indexed": false,
          "name": "total",
          "type": "uint256"
        }
      ],
      "name": "LogStake",
      "type": "event",
      "signature": "0xa0d1fa51224fb08c7c0b48d481448ad6a31c945d1a68cac8758cac3a92d5001c"
    },
    {
      "anonymous": false,
      "inputs": [
        {
          "indexed": true,
          "name": "user",
          "type": "address"
        },
        {
          "indexed": false,
          "name": "amount",
          "type": "uint256"
        },
        {
          "indexed": false,
          "name": "remaining",
          "type": "uint256"
        }
      ],
      "name": "LogUnstake",
      "type": "event",
      "signature": "0xe29caece2b88b23994418d68acab03ccb127bd7681dbda6e8c12132a279c2529"
    },
    {
      "anonymous": false,
      "inputs": [
        {
          "indexed": false,
          "name": "account",
          "type": "address"
        }
      ],
      "name": "Paused",
      "type": "event",
      "signature": "0x62e78cea01bee320cd4e420270b5ea74000d11b0c9f74754ebdbfc544b05a258"
    },
    {
      "anonymous": false,
      "inputs": [
        {
          "indexed": false,
          "name": "account",
          "type": "address"
        }
      ],
      "name": "Unpaused",
      "type": "event",
      "signature": "0x5db9ee0a495bf2e6ff9c91a7834c1ba4fdd244a5e8aa4e537bd38aeae4b073aa"
    },
    {
      "anonymous": false,
      "inputs": [
        {
          "indexed": true,
          "name": "previousOwner",
          "type": "address"
        },
        {
          "indexed": true,
          "name": "newOwner",
          "type": "address"
        }
      ],
      "name": "OwnershipTransferred",
      "type": "event",
      "signature": "0x8be0079c531659141344cd1fd0a4f28419497f9722a3daafe3b4186f6b6457e0"
    },
    {
      "constant": false,
      "inputs": [
        {
          "name": "_amount",
          "type": "uint256"
        }
      ],
      "name": "stake",
      "outputs": [],
      "payable": false,
      "stateMutability": "nonpayable",
      "type": "function",
      "signature": "0xa694fc3a"
    },
    {
      "constant": false,
      "inputs": [
        {
          "name": "_user",
          "type": "address"
        },
        {
          "name": "_amount",
          "type": "uint256"
        }
      ],
      "name": "stakeFor",
      "outputs": [],
      "payable": false,
      "stateMutability": "nonpayable",
      "type": "function",
      "signature": "0x2ee40908"
    },
    {
      "constant": false,
      "inputs": [
        {
          "name": "_amount",
          "type": "uint256"
        }
      ],
      "name": "unstake",
      "outputs": [],
      "payable": false,
      "stateMutability": "nonpayable",
      "type": "function",
      "signature": "0x2e17de78"
    }
  ],
  "bytecode": "0x608060405234801561001057600080fd5b506040516020806111368339810180604052602081101561003057600080fd5b8101908080519060200190929190505050336000806101000a81548173ffffffffffffffffffffffffffffffffffffffff021916908373ffffffffffffffffffffffffffffffffffffffff1602179055506000809054906101000a900473ffffffffffffffffffffffffffffffffffffffff1673ffffffffffffffffffffffffffffffffffffffff16600073ffffffffffffffffffffffffffffffffffffffff167f8be0079c531659141344cd1fd0a4f28419497f9722a3daafe3b4186f6b6457e060405160405180910390a360008060146101000a81548160ff021916908315150217905550600073ffffffffffffffffffffffffffffffffffffffff168173ffffffffffffffffffffffffffffffffffffffff16141515156101e2576040517f08c379a00000000000000000000000000000000000000000000000000000000081526004018080602001828103825260298152602001807f4572726f723a20636f6e7374727563746f7220726571756972657320746f6b6581526020017f6e2061646472657373000000000000000000000000000000000000000000000081525060400191505060405180910390fd5b80600160006101000a81548173ffffffffffffffffffffffffffffffffffffffff021916908373ffffffffffffffffffffffffffffffffffffffff16021790555050610f03806102336000396000f3fe6080604052600436106100b4576000357c01000000000000000000000000000000000000000000000000000000009004806316934fc4146100c65780632e17de781461012b5780632ee40908146101665780633f4ba83a146101c15780635c975abb146101d8578063715018a6146102075780638456cb591461021e5780638da5cb5b146102355780638f32d59b1461028c578063a694fc3a146102bb578063f2fde38b146102f6578063fc0c546a14610347575b3480156100c057600080fd5b50600080fd5b3480156100d257600080fd5b50610115600480360360208110156100e957600080fd5b81019080803573ffffffffffffffffffffffffffffffffffffffff16906020019092919050505061039e565b6040518082815260200191505060405180910390f35b34801561013757600080fd5b506101646004803603602081101561014e57600080fd5b81019080803590602001909291905050506103b6565b005b34801561017257600080fd5b506101bf6004803603604081101561018957600080fd5b81019080803573ffffffffffffffffffffffffffffffffffffffff16906020019092919080359060200190929190505050610750565b005b3480156101cd57600080fd5b506101d6610a68565b005b3480156101e457600080fd5b506101ed610b15565b604051808215151515815260200191505060405180910390f35b34801561021357600080fd5b5061021c610b2b565b005b34801561022a57600080fd5b50610233610bfd565b005b34801561024157600080fd5b5061024a610cac565b604051808273ffffffffffffffffffffffffffffffffffffffff1673ffffffffffffffffffffffffffffffffffffffff16815260200191505060405180910390f35b34801561029857600080fd5b506102a1610cd5565b604051808215151515815260200191505060405180910390f35b3480156102c757600080fd5b506102f4600480360360208110156102de57600080fd5b8101908080359060200190929190505050610d2c565b005b34801561030257600080fd5b506103456004803603602081101561031957600080fd5b81019080803573ffffffffffffffffffffffffffffffffffffffff169060200190929190505050610d55565b005b34801561035357600080fd5b5061035c610d74565b604051808273ffffffffffffffffffffffffffffffffffffffff1673ffffffffffffffffffffffffffffffffffffffff16815260200191505060405180910390f35b60026020528060005260406000206000915090505481565b600060149054906101000a900460ff161515156103d257600080fd5b80600260003373ffffffffffffffffffffffffffffffffffffffff1673ffffffffffffffffffffffffffffffffffffffff16815260200190815260200160002054101515156104af576040517f08c379a000000000000000000000000000000000000000000000000000000000815260040180806020018281038252602a8152602001807f4572726f723a20756e7374616b6520616d6f756e74206973206c61726765722081526020017f7468616e207374616b650000000000000000000000000000000000000000000081525060400191505060405180910390fd5b61050181600260003373ffffffffffffffffffffffffffffffffffffffff1673ffffffffffffffffffffffffffffffffffffffff16815260200190815260200160002054610d9a90919063ffffffff16565b600260003373ffffffffffffffffffffffffffffffffffffffff1673ffffffffffffffffffffffffffffffffffffffff16815260200190815260200160002081905550600160009054906101000a900473ffffffffffffffffffffffffffffffffffffffff1673ffffffffffffffffffffffffffffffffffffffff1663a9059cbb33836040518363ffffffff167c0100000000000000000000000000000000000000000000000000000000028152600401808373ffffffffffffffffffffffffffffffffffffffff1673ffffffffffffffffffffffffffffffffffffffff16815260200182815260200192505050602060405180830381600087803b15801561060957600080fd5b505af115801561061d573d6000803e3d6000fd5b505050506040513d602081101561063357600080fd5b810190808051906020019092919050505015156106b8576040517f08c379a00000000000000000000000000000000000000000000000000000000081526004018080602001828103825260208152602001807f4572726f723a20436f756c64206e6f74207472616e7366657220746f6b656e7381525060200191505060405180910390fd5b3373ffffffffffffffffffffffffffffffffffffffff167fe29caece2b88b23994418d68acab03ccb127bd7681dbda6e8c12132a279c252982600260003373ffffffffffffffffffffffffffffffffffffffff1673ffffffffffffffffffffffffffffffffffffffff16815260200190815260200160002054604051808381526020018281526020019250505060405180910390a250565b600060149054906101000a900460ff1615151561076c57600080fd5b6107be81600260008573ffffffffffffffffffffffffffffffffffffffff1673ffffffffffffffffffffffffffffffffffffffff16815260200190815260200160002054610dbc90919063ffffffff16565b600260008473ffffffffffffffffffffffffffffffffffffffff1673ffffffffffffffffffffffffffffffffffffffff16815260200190815260200160002081905550600160009054906101000a900473ffffffffffffffffffffffffffffffffffffffff1673ffffffffffffffffffffffffffffffffffffffff166323b872dd3330846040518463ffffffff167c0100000000000000000000000000000000000000000000000000000000028152600401808473ffffffffffffffffffffffffffffffffffffffff1673ffffffffffffffffffffffffffffffffffffffff1681526020018373ffffffffffffffffffffffffffffffffffffffff1673ffffffffffffffffffffffffffffffffffffffff1681526020018281526020019350505050602060405180830381600087803b1580156108fa57600080fd5b505af115801561090e573d6000803e3d6000fd5b505050506040513d602081101561092457600080fd5b810190808051906020019092919050505015156109cf576040517f08c379a00000000000000000000000000000000000000000000000000000000081526004018080602001828103825260218152602001807f4572726f723a206e6f7420656e6f75676820746f6b656e7320617070726f766581526020017f640000000000000000000000000000000000000000000000000000000000000081525060400191505060405180910390fd5b8173ffffffffffffffffffffffffffffffffffffffff167fa0d1fa51224fb08c7c0b48d481448ad6a31c945d1a68cac8758cac3a92d5001c82600260008673ffffffffffffffffffffffffffffffffffffffff1673ffffffffffffffffffffffffffffffffffffffff16815260200190815260200160002054604051808381526020018281526020019250505060405180910390a25050565b610a70610cd5565b1515610a7b57600080fd5b600060149054906101000a900460ff161515610a9657600080fd5b60008060146101000a81548160ff0219169083151502179055507f5db9ee0a495bf2e6ff9c91a7834c1ba4fdd244a5e8aa4e537bd38aeae4b073aa33604051808273ffffffffffffffffffffffffffffffffffffffff1673ffffffffffffffffffffffffffffffffffffffff16815260200191505060405180910390a1565b60008060149054906101000a900460ff16905090565b610b33610cd5565b1515610b3e57600080fd5b600073ffffffffffffffffffffffffffffffffffffffff166000809054906101000a900473ffffffffffffffffffffffffffffffffffffffff1673ffffffffffffffffffffffffffffffffffffffff167f8be0079c531659141344cd1fd0a4f28419497f9722a3daafe3b4186f6b6457e060405160405180910390a360008060006101000a81548173ffffffffffffffffffffffffffffffffffffffff021916908373ffffffffffffffffffffffffffffffffffffffff160217905550565b610c05610cd5565b1515610c1057600080fd5b600060149054906101000a900460ff16151515610c2c57600080fd5b6001600060146101000a81548160ff0219169083151502179055507f62e78cea01bee320cd4e420270b5ea74000d11b0c9f74754ebdbfc544b05a25833604051808273ffffffffffffffffffffffffffffffffffffffff1673ffffffffffffffffffffffffffffffffffffffff16815260200191505060405180910390a1565b60008060009054906101000a900473ffffffffffffffffffffffffffffffffffffffff16905090565b60008060009054906101000a900473ffffffffffffffffffffffffffffffffffffffff1673ffffffffffffffffffffffffffffffffffffffff163373ffffffffffffffffffffffffffffffffffffffff1614905090565b600060149054906101000a900460ff16151515610d4857600080fd5b610d523382610750565b50565b610d5d610cd5565b1515610d6857600080fd5b610d7181610ddd565b50565b600160009054906101000a900473ffffffffffffffffffffffffffffffffffffffff1681565b6000828211151515610dab57600080fd5b600082840390508091505092915050565b6000808284019050838110151515610dd357600080fd5b8091505092915050565b600073ffffffffffffffffffffffffffffffffffffffff168173ffffffffffffffffffffffffffffffffffffffff1614151515610e1957600080fd5b8073ffffffffffffffffffffffffffffffffffffffff166000809054906101000a900473ffffffffffffffffffffffffffffffffffffffff1673ffffffffffffffffffffffffffffffffffffffff167f8be0079c531659141344cd1fd0a4f28419497f9722a3daafe3b4186f6b6457e060405160405180910390a3806000806101000a81548173ffffffffffffffffffffffffffffffffffffffff021916908373ffffffffffffffffffffffffffffffffffffffff1602179055505056fea165627a7a72305820d2fb727fcb2ed59e225465349b6679ccd7ed65291d66d3bba943859c93b1ef270029",
  "source": "pragma solidity ^0.5.1;\r\n\r\nimport './util/SafeMath.sol';\r\nimport './util/IERC20.sol';\r\nimport './util/Pausable.sol';\r\n\r\n/// @title Staking simplified EIP-900 interface without history support or thawing\r\ncontract Staking is Pausable {\r\n    /// LIBRARIES \r\n    using SafeMath for uint256;\r\n    \r\n    /// EVENTS\r\n    event LogStake(address indexed user, uint256 amount, uint256 total);\r\n    event LogUnstake(address indexed user, uint256 amount, uint256 remaining);\r\n\r\n    /// CONTRACT STATE \r\n    IERC20 public token;\r\n    mapping (address => uint256) public stakes;\r\n    \r\n    /// @notice constructor \r\n    /// @param _token Token that can be staked.\r\n    constructor(address _token) public {\r\n        require(_token != address(0x0), \"Error: constructor requires token address\");\r\n        token = IERC20(_token);\r\n    }\r\n    \r\n    /// @notice Fallback completely reverts \r\n    function () external {\r\n        revert();\r\n    }\r\n\r\n    /// @notice Stakes a certain amount of tokens.\r\n    /// @param _amount Amount of tokens to stake.\r\n    function stake(uint256 _amount) public whenNotPaused {\r\n        stakeFor(msg.sender, _amount);\r\n    }\r\n\r\n    /// @notice Stakes a certain amount of tokens for another user.\r\n    /// @param _user Address of the user to stake for.\r\n    /// @param _amount Amount of tokens to stake.\r\n    function stakeFor(address _user, uint256 _amount) public whenNotPaused {\r\n        stakes[_user] = stakes[_user].add(_amount);\r\n        require(token.transferFrom(msg.sender, address(this), _amount), \"Error: not enough tokens approved\");\r\n        emit LogStake(_user, _amount, stakes[_user]);\r\n    }\r\n\r\n    /// @notice Unstakes a certain amount of tokens.\r\n    /// @param _amount Amount of tokens to unstake.\r\n    function unstake(uint256 _amount) public whenNotPaused {\r\n        require(stakes[msg.sender] >= _amount, \"Error: unstake amount is larger than stake\");\r\n        stakes[msg.sender] = stakes[msg.sender].sub(_amount);\r\n        require(token.transfer(msg.sender, _amount), \"Error: Could not transfer tokens\");\r\n        emit LogUnstake(msg.sender, _amount, stakes[msg.sender]);\r\n    }\r\n\r\n}\r\n",
  "sourcePath": "C:\\Users\\Nico\\Desktop\\academy-project\\contracts\\Staking.sol",
  "compiler": {
    "name": "solc",
    "version": "0.5.1+commit.c8a2cb62.Emscripten.clang"
  },
  "schemaVersion": "3.0.2",
  "updatedAt": "2019-02-24T14:30:13.289Z",
  "devdoc": {
    "methods": {
      "constructor": {
        "params": {
          "_token": "Token that can be staked."
        }
      },
      "isOwner()": {
        "return": "true if `msg.sender` is the owner of the contract.\r"
      },
      "owner()": {
        "return": "the address of the owner.\r"
      },
      "pause()": {
        "details": "called by the owner to pause, triggers stopped state\r"
      },
      "paused()": {
        "return": "true if the contract is paused, false otherwise.\r"
      },
      "renounceOwnership()": {
        "details": "Allows the current owner to relinquish control of the contract.\r"
      },
      "stake(uint256)": {
        "params": {
          "_amount": "Amount of tokens to stake."
        }
      },
      "stakeFor(address,uint256)": {
        "params": {
          "_amount": "Amount of tokens to stake."
        }
      },
      "transferOwnership(address)": {
        "details": "Allows the current owner to transfer control of the contract to a newOwner.\r",
        "params": {
          "newOwner": "The address to transfer ownership to.\r"
        }
      },
      "unpause()": {
        "details": "called by the owner to unpause, returns to normal state\r"
      },
      "unstake(uint256)": {
        "params": {
          "_amount": "Amount of tokens to unstake."
        }
      }
    },
    "title": "Staking simplified EIP-900 interface without history support or thawing"
  },
  "userdoc": {
    "methods": {
      "renounceOwnership()": {
        "notice": "Renouncing to ownership will leave the contract without an owner.\r It will not be possible to call the functions with the `onlyOwner`\r modifier anymore.\r"
      }
    }
  }
}